{
  "contractName": "CoinFlip",
  "abi": [
    {
      "anonymous": false,
      "inputs": [
        {
          "indexed": false,
          "internalType": "uint256",
          "name": "payout",
          "type": "uint256"
        }
      ],
      "name": "PayoutPotCreated",
      "type": "event"
    },
    {
      "constant": true,
      "inputs": [],
      "name": "owner",
      "outputs": [
        {
          "internalType": "address",
          "name": "",
          "type": "address"
        }
      ],
      "payable": false,
      "stateMutability": "view",
      "type": "function"
    },
    {
      "constant": false,
      "inputs": [],
      "name": "AddToPot",
      "outputs": [],
      "payable": true,
      "stateMutability": "payable",
      "type": "function"
    },
    {
      "constant": false,
      "inputs": [],
      "name": "FundContract",
      "outputs": [],
      "payable": true,
      "stateMutability": "payable",
      "type": "function"
    },
    {
      "constant": false,
      "inputs": [],
      "name": "PreparePotForPayout",
      "outputs": [],
      "payable": false,
      "stateMutability": "nonpayable",
      "type": "function"
    },
    {
      "constant": true,
      "inputs": [],
      "name": "GetPotBalance",
      "outputs": [
        {
          "internalType": "uint256",
          "name": "",
          "type": "uint256"
        }
      ],
      "payable": false,
      "stateMutability": "view",
      "type": "function"
    },
    {
      "constant": true,
      "inputs": [],
      "name": "getContractBalance",
      "outputs": [
        {
          "internalType": "uint256",
          "name": "",
          "type": "uint256"
        }
      ],
      "payable": false,
      "stateMutability": "view",
      "type": "function"
    },
    {
      "constant": true,
      "inputs": [],
      "name": "ReadyToFlip",
      "outputs": [
        {
          "internalType": "bool",
          "name": "",
          "type": "bool"
        }
      ],
      "payable": false,
      "stateMutability": "view",
      "type": "function"
    },
    {
      "constant": true,
      "inputs": [
        {
          "internalType": "uint256",
          "name": "side",
          "type": "uint256"
        }
      ],
      "name": "DoFlip",
      "outputs": [
        {
          "internalType": "bool",
          "name": "",
          "type": "bool"
        }
      ],
      "payable": false,
      "stateMutability": "view",
      "type": "function"
    },
    {
      "constant": false,
      "inputs": [
        {
          "internalType": "bool",
          "name": "_fWinner",
          "type": "bool"
        }
      ],
      "name": "CompleteTransactions",
      "outputs": [],
      "payable": false,
      "stateMutability": "nonpayable",
      "type": "function"
    },
    {
      "constant": true,
      "inputs": [],
      "name": "random",
      "outputs": [
        {
          "internalType": "uint256",
          "name": "",
          "type": "uint256"
        }
      ],
      "payable": false,
      "stateMutability": "view",
      "type": "function"
    },
    {
      "constant": true,
      "inputs": [],
      "name": "getnow",
      "outputs": [
        {
          "internalType": "uint256",
          "name": "",
          "type": "uint256"
        }
      ],
      "payable": false,
      "stateMutability": "view",
      "type": "function"
    },
    {
      "constant": false,
      "inputs": [],
      "name": "withdrawAll",
      "outputs": [
        {
          "internalType": "uint256",
          "name": "",
          "type": "uint256"
        }
      ],
      "payable": false,
      "stateMutability": "nonpayable",
      "type": "function"
    }
  ],
  "bytecode": "0x6080604052336000806101000a81548173ffffffffffffffffffffffffffffffffffffffff021916908373ffffffffffffffffffffffffffffffffffffffff16021790555061057e806100536000396000f3fe6080604052600436106100a75760003560e01c8063853828b611610064578063853828b6146101c6578063881cf122146101f15780638da5cb5b1461021c5780638ed8067e14610273578063cb07d1931461027d578063d867bef8146102ba576100a7565b806304b4c1ba146100ac5780633375901a146100db5780633a51eeb0146101065780635cc316e9146101595780635ec01e4d146101705780636f9fb98a1461019b575b600080fd5b3480156100b857600080fd5b506100c16102c4565b604051808215151515815260200191505060405180910390f35b3480156100e757600080fd5b506100f06102d0565b6040518082815260200191505060405180910390f35b34801561011257600080fd5b5061013f6004803603602081101561012957600080fd5b81019080803590602001909291905050506102da565b604051808215151515815260200191505060405180910390f35b34801561016557600080fd5b5061016e6102ed565b005b34801561017c57600080fd5b506101856102fb565b6040518082815260200191505060405180910390f35b3480156101a757600080fd5b506101b0610314565b6040518082815260200191505060405180910390f35b3480156101d257600080fd5b506101db61031e565b6040518082815260200191505060405180910390f35b3480156101fd57600080fd5b5061020661042d565b6040518082815260200191505060405180910390f35b34801561022857600080fd5b50610231610435565b604051808273ffffffffffffffffffffffffffffffffffffffff1673ffffffffffffffffffffffffffffffffffffffff16815260200191505060405180910390f35b61027b61045a565b005b34801561028957600080fd5b506102b8600480360360208110156102a057600080fd5b8101908080351515906020019092919050505061046c565b005b6102c26104e6565b005b60008060035411905090565b6000600354905090565b60006102e46102fb565b82149050919050565b600254600202600381905550565b6000600261030761042d565b8161030e57fe5b06905090565b6000600154905090565b60008060009054906101000a900473ffffffffffffffffffffffffffffffffffffffff1673ffffffffffffffffffffffffffffffffffffffff163373ffffffffffffffffffffffffffffffffffffffff161461037957600080fd5b3373ffffffffffffffffffffffffffffffffffffffff166108fc3073ffffffffffffffffffffffffffffffffffffffff16319081150290604051600060405180830381858888f193505050501580156103d6573d6000803e3d6000fd5b5060006001819055506000600281905550600060038190555060003073ffffffffffffffffffffffffffffffffffffffff16311461041057fe5b3073ffffffffffffffffffffffffffffffffffffffff1631905090565b600042905090565b6000809054906101000a900473ffffffffffffffffffffffffffffffffffffffff1681565b34600160008282540192505081905550565b600060028190555080156104c8573373ffffffffffffffffffffffffffffffffffffffff166108fc6003549081150290604051600060405180830381858888f193505050501580156104c2573d6000803e3d6000fd5b506104db565b6003546001600082825401925050819055505b600060038190555050565b346002600082825401925050819055503460016000828254039250508190555061050e6102ed565b7f3fd806cb93db22637c097d0651e7c5cb13ae1fe0c0dc66f9e0ee2aaaafb6a09d6003546040518082815260200191505060405180910390a156fea265627a7a723158201e9c753f46b0db923d76648f248df3995f5c6142b6657fc532c0485a7b29ccde64736f6c634300050c0032",
  "source": "import \"./Ownable.sol\";\npragma solidity 0.5.12;\n\ncontract CoinFlip is Ownable{\n    uint        private contractBalance;\n    uint        private balance;\n    uint        private payout;\n\n    event PayoutPotCreated( uint payout );\n\n    function AddToPot() public payable {\n        balance += msg.value;\n        contractBalance -= msg.value;\n        PreparePotForPayout();\n        emit PayoutPotCreated( payout );\n    }\n\n    function FundContract() public payable {\n        contractBalance += msg.value;\n    }\n\n    function PreparePotForPayout() public\n    {   \n        payout = 2 * balance;\n    }\n\n    function GetPotBalance() public view returns(uint) \n    {\n        return payout;\n    }\n\n    function getContractBalance() public view returns(uint) {\n        return contractBalance;\n   }\n\n    function ReadyToFlip() public view returns(bool) {\n        return payout > 0;\n    }\n\n    function DoFlip(uint side) public view returns (bool) {\n        return ( side == random() );\n    }\n\n    function CompleteTransactions(bool _fWinner) public \n    {\n        balance = 0;\n        if ( _fWinner )\n        {\n            msg.sender.transfer( payout );\n        }\n        else\n        {\n            contractBalance += payout;\n        }\n        payout = 0;\n    }\n\n    function random() public view returns (uint) {\n        return getnow() % 2;\n    }\n\n     function getnow() public view returns (uint) {\n        return now;\n    }\n\n    function withdrawAll() public onlyOwner returns(uint){\n        msg.sender.transfer(address(this).balance);\n        contractBalance = 0;\n        balance = 0;\n        payout = 0;\n        assert(address(this).balance == 0);\n        return address(this).balance;\n    }\n}\n\n",
  "sourcePath": "/home/danielo/java/projects/crypto/coinflip/contracts/CoinFlip.sol",
  "compiler": {
    "name": "solc",
    "version": "0.5.12+commit.7709ece9.Emscripten.clang"
  },
  "schemaVersion": "3.0.16",
  "updatedAt": "2020-08-23T20:20:46.534Z",
  "devdoc": {
    "methods": {}
  },
  "userdoc": {
    "methods": {}
  }
}